:1000000000308A004C2F0000FF00030E8301A10086
:100010000A08A0008A010408A2007708A300780853
:10002000A4007908A5007A08A6007B08A70083131E
:1000300083128C308400001C1F280C1832282208E0
:1000400084002308F7002408F8002508F900260892
:10005000FA002708FB0020088A00210E8300FF0E0B
:100060007F0E09008A110A1275280A108A100A11D7
:10007000820728340C34013406340A108A100A111D
:100080008207543445344D3450343A3420342534C6
:1000900033342E3432346634203400340A108A105B
:1000A0000A118207433400340A108A100A118207A9
:1000B0004C3455345A343A34203425347534203491
:1000C00000340A108A100A118207B7343A342034F7
:1000D00049346E3469346334693461346E34643461
:1000E0006F3420343A34B73400342C0B8128AC01FF
:1000F000AB0A2A142B08033C031D8028AA14AB0169
:100100008228AC0A0F08FA000E08F7000F087A02DE
:10011000031D82287708DC3ED1007A08D2000B301C
:1001200003180C30D20752088F0051088E000C10B3
:100130008A110A121F2807168715003445308400DB
:10014000831300080319B2280130F800F701F70BF8
:10015000A728F80BA6284A30F700F70BAD28B028DF
:10016000800BA42800344C0EF039F7000F30060540
:100170007704860000000614BD280610003486109F
:10018000F030831686008312061500000614000066
:100190000608060E0F39CC000610000006140000F9
:1001A0000608060E0F39CB000610003083168600B5
:1001B00083124C0EF700F030F70577084B04F80077
:1001C0007808CB00CB1BC028491C86104918861420
:1001D00000000611000006104A0ECB000F30CB05C0
:1001E0004B08CC00B3204A080F39CB00CC00B32019
:1001F0000034003083168600831286100611061024
:100200000F30C5009E200130B6003608033C031CA9
:1002100011290330CC00B3200530C5009E20B60A5A
:1002200005290230CC00B320B6013608033C031C7C
:10023000222936083520B700C9013708CA00BF2077
:10024000B60A15290034460B262929294030C70053
:100250002A29C70101304502C70747088038C8006E
:10026000C9014808CA00BF20003444080C3A0319E9
:100270004029063A03194829023A03194E295329FD
:10028000C9010130CA00BF200230C5009E20592993
:100290000130C5000230C60023215929C9011030A0
:1002A000CA00BF2059290130C9004408CA00BF2034
:1002B000592900340830F80000008711831687118F
:1002C00000008312BC0D0712031C69298316071650
:1002D000831203186E29831607128312831687155B
:1002E0008312871D7129F80B5C2900008711831682
:1002F0008711000007160000000087158312871D74
:100300007F29F8010000071A7814871183168711D6
:100310008312071283160712831200340830BD00BF
:100320007708BE0083160716000087158312871D05
:100330009729071A0314071E0310F80D00008316EF
:10034000871183128711BD0B9229831607160000AF
:10035000831207123E080319B0298316071283126D
:100360000000831687158312871DB42900008711AA
:100370008316871100008312071283160712831257
:1003800000348E30F7004108F8004008F900FA0107
:10039000F808031DD5297908F800F9010830F7029B
:1003A000F808031DD529F701DD290310F81BDC2906
:1003B000F90DF80DF703D529F81300349B208316A7
:1003C0000716000087150000831207128316071214
:1003D000000083128711831687119E308312BC00A0
:1003E0005A21AC30BC005A210130BC005A2183167E
:1003F0000712000087158312871DFC290000002AC0
:10040000000083160716000032308312C5009E20BC
:100410008316071600008715000083120712831643
:100420000712000083128711831687119E308312F2
:10043000BC005A21EE30BC005A218316071200007E
:1004400087158312871D222A0000262A00008316A2
:100450000716000007160000871500008312071218
:1004600083160712000083128711831687119E30AE
:100470008312BC005A21AA30BC005A2183160716E9
:100480000000871500008312871D442A0712831677
:100490000712000083128711831687119F30831281
:1004A000BC005A210130F7008E217808B600F70110
:1004B0008E217808B7008316071200008715831273
:1004C000871D602A0000642A0000831607160000BA
:1004D0008312C1013708C000C1217A08BF00790822
:1004E000BE007808BD007708BC00C301C201C1018D
:1004F0008730C0003C0803193F2BC800400803198F
:100500003F2BC802031C892A7F30C80703183F2BE2
:100510008F2A8130C802031C3F2B03193F2B480848
:10052000F700F801F901FA01C7013D08C600C61736
:100530003E08C5003F08C4001930C8004308C40283
:100540000318B22A0130C5020318B22AC6020318E2
:10055000B22AC7020318B22AC70AC60AC50A430844
:10056000C407E42A4208C5020318CD2A0130C60296
:100570000318CD2AC7020318CD2AC70AC60A4208A3
:10058000C5074308C407031CE42AC50A031DE42A5F
:10059000C60A031DE42AC70AE42A41088038C602B5
:1005A0000318E32A0130C7020318E32AC70A4108E7
:1005B0008038C6074208C507031CC12AC60A031DA6
:1005C000C12AC70AC12A7A14C80BE72AF22A0310E3
:1005D000C40DC50DC60DC70D0310FA0DF90DF80DAC
:1005E000C90D9E2A491CFA2A0310F80CF90CFA0CC2
:1005F000C90CFD2AF70303193F2BC91B262B031037
:10060000C40DC50DC60DC70D4308C4020318122B37
:100610000130C5020318122BC6020318122BC702A1
:10062000031C352B4208C50203181D2B0130C602DE
:1006300003181D2BC702031C352B41088038C60246
:100640000318262B0130C702031C352BFA0A031DA1
:10065000352BF90A031D352BF80A031D352BF70A34
:1006600003193F2BF80CF90CFA0C3D08C80041089F
:10067000C806C81F3D2BF817432BF813432BF7016F
:10068000F801F901FA017708BC007808BD00790883
:10069000BE007A08BF00C1013608C000C121831026
:1006A0007A08C3007908C2007808C1007708C00042
:1006B0003F08C7003E08C6003D08C5003C08C4000E
:1006C00080308318C506CA01CB014108C90045081E
:1006D000C90640080319502CC800F7004408031944
:1006E000592CC8020319F52B031CB32B4508CE0067
:1006F000CE174608CD004708CC00CB010310CE0C26
:10070000CD0CCC0CCB0CC80B7D2BC91F8A2B4A14EB
:100710006D2C4A1048104A16433084008313822CF3
:100720004A12C91B9D2B481CA82BCE0CCD0CCC0CFF
:10073000CB0CF70A0319682CA82BCE1BAB2B03108C
:10074000CB0DCC0DCD0DCE0DF7030319682C9D2BD1
:100750004A17152C4A134108C900C91FB12BCE17DF
:10076000612CCE13612C4408C800F7004008C80271
:100770004108CE00CE174208CD004308CC00CB0183
:100780000310CE0CCD0CCC0CCB0CC80BBF2BC91F4F
:10079000CC2BCA146D2CCA104810CA1647308400DE
:1007A0008313822CCA12C91BDF2B481CEA2BCE0CE8
:1007B000CD0CCC0CCB0CF70A0319682CEA2BCE1B02
:1007C000ED2B0310CB0DCC0DCD0DCE0DF703031982
:1007D000682CDF2BCA17152CCA134508C900C91F7E
:1007E000F32BCE17612CCE13612C4508CE00CE170B
:1007F0004608CD004708CC00C91F022CCE134A156D
:100800006D2C4A11CB014810433084008313822C95
:10081000C91B2B2C4108C900481C152CCE0CCD0C33
:10082000CC0CCB0CF70A0319682CCB1F262CCC0A56
:10083000031D262CCD0A031D262CCE0A031D262CB3
:10084000CE0CCD0CCC0CF70A0319682C4A1BAA2B32
:10085000CA1BEC2B4A2C8030CE06CE1F332C6D2CBD
:100860004508C900402C4108C900CE08031D402C92
:10087000CD08031D402CCC08031D402CF701612C32
:10088000CE1B4A2C0310CB0DCC0DCD0DCE0DF70B8E
:10089000402C682CC91F4E2CCE17612CCE13612C16
:1008A0004408F7004508CE004608CD004708CC00B4
:1008B000612C4008F7004108CE004208CD004308F3
:1008C000CC004E08F8004D08F9004C08FA00A02CA6
:1008D000F701F801F901FA01A02CCB01CC09CD09EF
:1008E000CE09CB09CB0A031D7B2CCC0A031D7B2C24
:1008F000CD0A0319CE0A4A18892BCA18CB2B4A19DC
:10090000012C302C0008CC07031C8C2CCD0A031DB5
:100910008C2CCE0A0319481484030008CD07031C4D
:10092000942CCE0A0319481484030008801F803ACF
:10093000CE07031848144A1A902BCA1AD22B082C37
:100940007A08BB007908BA007808B9007708B800BF
:100950003808F7003908F8003A08F9003B08FA00AF
:100960007A08B5007908B4007808B3007708B200B7
:100970003208F7003308F8003408F9003508FA00A7
:100980008A110A12932FF701F801F901FA01CC013B
:10099000CD01CE01CF014B084A0449044804031994
:1009A000012D2030D0000310C40DC50DC60DC70D9C
:1009B000CC0DCD0DCE0DCF0D4B084F02031DEA2CF3
:1009C0004A084E02031DEA2C49084D02031DEA2C79
:1009D00048084C02031CFB2C4808CC024908031CA5
:1009E000490FCD024A08031C4A0FCE024B08031CD4
:1009F0004B0FCF020314F70DF80DF90DFA0DD00BC4
:100A0000D32C4C308400831300340408BC003B0812
:100A1000BE000319972D3A08C7003908C6003808E8
:100A2000C5003708C400CB01CA012030C90082309C
:100A3000C80044080319892DCC0048080319892DE2
:100A4000CC0703182A2D7F30CC02031C892D0319F3
:100A5000892D2E2D8130CC070318892D4C08F700E5
:100A6000F801F901FA014508D000D0174608CF0077
:100A70004708CE001830CC00CD014E1C572D4B0836
:100A8000FA07031C492DF90A031D492DF80A031919
:100A9000CD174A08F907031C502DF80A0319CD1782
:100AA0004908C600C6174608F8070318CD17CD0D2C
:100AB000F80CF90CFA0CD00CCF0CCE0C0310CC0BAC
:100AC0003C2D0130F7070318892DF81B6E2DD00D32
:100AD000FA0DF90DF80DF7030319892DD01F7F2D9D
:100AE000FA0A031D7F2DF90A031D7F2DF80A031D45
:100AF0007F2DF80CF90CFA0CF70A0319892D45081B
:100B0000CD004908CD06CD1F872DF8178D2DF81380
:100B10008D2DF701F801F901FA017A08BA00790878
:100B2000B9007808B8007708B700BE0B0B2D3A085B
:100B3000C7003908C6003808C5003708C400440893
:100B4000B63CC400FA014508C800C5170310C50C1F
:100B5000C60CC70CFA0CF90CF80CF70CC40BA62D3C
:100B6000C81FBD2DF709F809F909FA09F70A031991
:100B7000F80A0319F90A0319FA0A7A08BA00790877
:100B8000B9007808B8007708B700BA1FD42DBC03A5
:100B9000BC16B709B809B909BA09B70A0319B80ADE
:100BA0000319B90A0319BA0A3B30C3009A30C200CC
:100BB000CA30C100C0010A30BE003B080319BC0A9C
:100BC0003A08C7003908C6003808C5003708C4000D
:100BD0004308CB004208CA004108C9004008C800C9
:100BE000C3240008B700840A0008B800840A00087B
:100BF000B900840A0008BA00FD308407F708031D15
:100C0000142E3B0A3E020319142E3C080319162E1B
:100C10000F393E0203190E2E0318462EBC1B462E1A
:100C20003C1B162E2030422E2030BC05BC1E242E2C
:100C3000BC123B08031DBC037708BC002D30C40068
:100C400035213C08F700BC013B083E02031D322E53
:100C50007708BC002E30C40035213C08F700203056
:100C6000BC0500303030BC1E422EBC123B08031DB8
:100C7000BC037708BC002D30C40035213C08F700C8
:100C8000BC013030F7077708C40035214308C7009E
:100C90004208C6004108C5004008C400CB01CA0193
:100CA000C9010A30C800C3247A08C3007908C20009
:100CB0007808C1007708C000BE0BE02D8A110A1227
:100CC000822EF920C9010130CA00BF20C9010230BB
:100CD000CA00BF20B60136083D20B60AF700C4009E
:100CE000352106303602031D6B2E02308400350894
:100CF000BA003408B9003308B8003208B70002302F
:100D0000BB00052D2030C4003521DF30C400352163
:100D1000B60136084E2000380319922EB60AC400D8
:100D20003521892E8A110A12A42F0030F8001F08DD
:100D3000C73978049F001F151F199C2E1F151F19F6
:100D40009F2E1E08B2003208F8008A110A12A82F3E
:100D50003708F80136020318B02E3608F700BC2E0B
:100D6000F7010830B800B60DF70D37087702031801
:100D7000F700F80DB80BB32E00340130C500023077
:100D8000C6002321B30133085420B30AF7007708C3
:100D9000C400352105303302031DC32E3208B400D0
:100DA0001B30B5003408B6006430B700A8267708B9
:100DB000B40078083030031DE42EB51CEB2EB519B5
:100DC000EB2E351A2030E72EB51135123514F80701
:100DD0007808C40035213408B6000A30B700A826C8
:100DE0007708B40078083030031DFC2EB519002FA9
:100DF000351C002F351A2030F8077808C40035213B
:100E00003030B4073408C40035212030C400352107
:100E10008A110A12AD2F3308BA003708BA06BA1F72
:100E2000162F03110310B31B0314492F3308BA0004
:100E30003608BB003208BB020319242FBA1F492F02
:100E40000308013A8300492F3708BB003308BB026F
:100E50000319302FBA1F492F0308013A8300492F85
:100E60003808BB003408BB0203193C2FBA1F492FB6
:100E70000308013A8300492F3908BB003508BB023B
:100E80000319482FBA1F492F0308013A8300492F3D
:100E900003108A110A12BD2F840183131F308305AA
:100EA00083161F149F141F159F118312A801A901F7
:100EB0002A14AA14AB01AC019B20F920C830C5004C
:100EC0009E20B20132086120003803196B2FB20A4C
:100ED000C4003521622F0830B200FA30C5009E20D0
:100EE000B20B6D2FC9010130CA00BF20003083163C
:100EF000860087001F109F141F159F1583121F1750
:100F00009F1783169F1383121F14B53090000B3068
:100F10008F00DC308E0083160C14C03083128B04DB
:100F2000AA1CA52FDE297A08B0007908AF0078083E
:100F3000AE007708AD003008B5002F08B4002E08C9
:100F4000B3002D08B200612EAA102A1CAE2F952ED8
:100F50007808B1003108B200BD2E2A10B501B401E5
:100F60004830B3008330B2003008B9002F08B80011
:100F70002E08B7002D08B6000B2F031CC12F8714B5
:100F8000C22F87103108313C031CC82F0714C92F0A
:060F90000710902F630022
:02400E00393F38
:00000001FF
;PIC16F876
